:020000040800F2
:1000000038050020010100087B1600085114000883
:10001000791600086D010008571A0008000000005A
:10002000000000000000000000000000CF170008E2
:100030006F010008000000007D160008D1170008BD
:100040001B0100081B0100081B0100081B01000820
:100050001B0100081B0100081B0100081B01000810
:100060001B0100081B0100081B0100081B01000800
:100070001B0100081B0100081B0100081B010008F0
:100080001B0100081B0100081B0100081B010008E0
:100090001B0100081B0100081B0100081B010008D0
:1000A0001B0100081B0100081B0100081B010008C0
:1000B0001B0100081B010008000000001B010008D4
:1000C0001B01000800000000000000001B010008E8
:1000D000000000001B0100081B01000800000000D8
:1000E0001B0100081B0100081B010008DFF80CD0F1
:1000F00000F02AF800480047751D00083805002068
:100100000648804706480047FEE7FEE7FEE7FEE7B1
:10011000FEE7FEE7FEE7FEE7FEE7FEE72F18000832
:10012000ED000008D2B201E000F8012B491EFBD21D
:1001300070470022F6E710B513460A4604461946F2
:10014000FFF7F0FF204610BD064C074D06E0E068C3
:1001500040F0010394E8070098471034AC42F6D30E
:10016000FFF7C8FF2420000844200008FEE770477E
:1001700070B5044600F0F4F80546601C02D004484F
:100180000078044400F0ECF8401BA042FAD370BDA4
:100190002C0000202DE9F84FDFF89C91002409F194
:1001A000040A0AF1040B23460F270BF1040EBBE0EF
:1001B0000125A5402A40AA4276D1DFF880C14E68C9
:1001C000A6EB0C0866452BD00DDC032E34D005DCE5
:1001D00036B3012E19D0022E2FD11BE0112E16D0CE
:1001E000122E2AD119E0B8F5881F19D006DCB8F50F
:1001F000803F15D0B8F5801F1FD111E0B8F5001F62
:100200000ED0B8F5041F18D10AE0CB6815E0CB6812
:100210001B1D12E0CB6808330FE0CB680C330CE0F9
:100220008B682BB1012B4FF0080303D0456104E02C
:10023000042302E0056100E00023FF2A01D80646FE
:1002400001E000F104064FEA840501D9A5F120057B
:10025000D6F8008007FA05FC28EA0C0803FA05F531
:1002600048EA0508C6F800804D68ED005BD5344DBE
:10027000AE6946F00106AE61AD6924F0030605F0F3
:10028000010500952F4D06EB050CDCF80850A6077C
:10029000360F07FA06F825EA0805DFF8AC80404576
:1002A00003D14FF0000810E03DE0DFF8A0804045AA
:1002B00002D14FF0010808E0DFF89480404502D1F8
:1002C0004FF0020801E04FF0030808FA06F848EA88
:1002D0000508CCF808804D68D9F80060ED034D465C
:1002E00001D5164300E096432E604D68DAF80060B1
:1002F000AD03554601D5164300E096432E604D6888
:10030000DBF80060ED025D4601D5164300E0964340
:100310002E604D68DEF80060AD02754601D51643CB
:1003200000E096432E60641C0A6832FA04F57FF4FC
:100330003FAFBDE8F88F000000040140000011103D
:10034000001002400000014000080140000C014084
:10035000001001400AB1016170470904FBE7000089
:1003600001488068704700002C00002070B5040030
:1003700025D094F83D00002520B984F83C50204653
:1003800000F0B8F8242084F83D002068016821F0CE
:10039000010101602068016841F4004101602068AA
:1003A000016821F40041016000F0D4FA4D4A61680F
:1003B000914201D84C4900E04C49884201D20120C9
:1003C00070BD4B492368B0FBF1F15E6826F03F0633
:1003D0000E435E606368934206D94FF496735943A7
:1003E0004FF47A73B1FBF3F12368491C1E6A26F0BF
:1003F0003F06314319626168914210D84900401E9E
:10040000B0FBF1F2521CC2F30B02042A01D2042009
:1004100022E0B0FBF1F0401CC0F30B001CE0A2682E
:10042000F2B301EBC10303EB0116431EB3FBF6F37A
:100430005B1C43F480431B0549D092B301EBC1021E
:1004400002EB0111401EB0FBF1F0401CC0F30B00A9
:1004500040F4804040F400402168CA694CF6FF73C4
:100460009A431043C861D4E9071001432068026829
:1004700022F0C00211430160D4E903010143206866
:10048000826848F2FF339A4311438160D4E9050141
:1004900008432168CA6822F0FF021043C86001E0E7
:1004A0000EE016E02068016841F00101016025645A
:1004B000202084F83D00256384F83E50002070BD64
:1004C00001EB4106431EB3FBF6F35B1CB3E70120CF
:1004D000C2E701EB4101401EB0FBF1F0401CC0F34C
:1004E0000B00B7E7A086010080841E0000093D00D4
:1004F00040420F0010B586B0002100910191029199
:1005000003910068104988421CD1104CA06940F04A
:100510000800A061A069694600F008000490C020AE
:1005200000901220019001200290032003900848BF
:10053000FFF730FEE06940F40010E061E06900F48C
:100540000010049006B010BD00540040001002409E
:10055000000C0140024881680278114481607047B4
:100560002C000020074810B5016841F0100101601F
:10057000032000F067F8002000F006F800F024F8EF
:10058000002010BD0020024070B50D4D04464FF410
:100590007A712878B1FBF0F00A490968B1FBF0F0F4
:1005A00000F0FDFC48B9102C07D200222146501E55
:1005B00000F028F800206C6070BD012070BD0000C4
:1005C0002C000020380000200C4808B5816941F05B
:1005D00001018161816901F001010091C16941F06E
:1005E0008051C161C06900F08050009004484168AA
:1005F00021F0E06141F08061416008BD00100240DF
:1006000000000140F0B40E4B1B680C46C3F30223FC
:10061000C3F10705042D00D90425191D072901D2AE
:10062000002300E0DB1E012606FA05F1491E2140E9
:1006300099409E40761E16403143F0BC01F00CBA42
:100640000CED00E0064900F0070208684FF6FF03D2
:10065000184040EA0220034A104308607047000037
:100660000CED00E00000FA05014901200862704726
:1006700000000E4210B529A401461DCC86B08DE8BD
:100680001D002AA02A4C006804900020012923D0D4
:1006900002293AD010291DD161682268D20119D5EA
:1006A000C1F38342C9031DF8020009D5616804AA99
:1006B000C1F34041515C1F4AB2FBF1F1484301E0F4
:1006C0001D4948436168490204D440005FF00301BA
:1006D000B0FBF1F006B010BD226AC2F3012101297E
:1006E00003D1920701D5C803F4E7022905D1626A54
:1006F000920702D549F64040ECE70329EAD1216888
:100700008903E7D54FF22440E4E700F033F961684C
:10071000C1F38131491C4900DAE7000002030405F6
:10072000060708090A0B0C0D0E0F1010010200003D
:100730000010024000127A0000093D002DE9F84344
:1007400005460078354CC00754D0E0690026C0004B
:1007500008D4E06940F08050E061E069012600F0D3
:10076000805000902E480168C90512D40168804667
:1007700041F480710160FFF7F3FD074605E000BF1B
:10078000FFF7EEFDC01B642823D8D8F80000C00591
:10079000F6D5206A10F4407021D0A98801F4407188
:1007A00081421CD0206A1F49012220F440700A6057
:1007B00000220A602062C00711D0FFF7D1FD074672
:1007C00041F2883808E000BFFFF7CAFDC11B414570
:1007D00002D90320BDE8F883206A8007F4D5206A97
:1007E000696820F44070084320621EB1E06920F07F
:1007F0008050E0612878800705D56068A96820F4FA
:100800004040084360602878C00605D56068E96804
:1008100020F48000084360600020DBE70010024005
:1008200000700040400442422DE9F0470F460500A9
:1008300061D0434E306800F00700B84209D23068FA
:1008400020F0070038433060306800F00700B842FD
:1008500051D128683B4C810712D5400703D5606809
:1008600040F4E06060602878000703D5606840F4D9
:10087000605060606068A96820F0F0000843606024
:100880002878C00728D06868012810D0216802287D
:1008900010D0890700292EDA616821F00301014395
:1008A0006160FFF75DFD804641F288390DE0216807
:1008B0008903EFE78901EDE7FFF752FDA0EB08019F
:1008C000494502D90320BDE8F0876068696800F0F7
:1008D0000C00B0EB810FEFD1306800F00700B84298
:1008E0000BD9306820F0070038433060306800F0E2
:1008F0000700B84201D00120E5E72878400705D578
:100900006068E96820F4E0600843606028780007C8
:1009100006D56068296920F4605040EAC100606033
:1009200000F038F86168084AC1F30311515CC8400F
:100930000649086006480068FFF726FE0020C2E767
:1009400000200240001002400C2000083800002067
:10095000300000200448054900684968044AC1F392
:100960000221515CC840704738000020001002404E
:100970001C2000080448054900684968044AC1F37E
:10098000C221515CC840704738000020001002406E
:100990001C20000812A185B00FC98DE80F0014A01B
:1009A000144A006804905168134801F00C03042BAA
:1009B00010D0082B0ED1C1F38343C9031DF80300E7
:1009C0000AD5516804AAC1F34041515C0A4A504318
:1009D000B0FBF1F005B0704708494843FAE7000062
:1009E00002030405060708090A0B0C0D0E0F101070
:1009F000010200000010024000127A0000093D00D0
:100A00002DE9F84F040070D02078C04DC00749D0C0
:100A10006868C0F38100012807D06868C0F38100CE
:100A2000022809D16868C00306D52868800339D533
:100A300060680028E7D035E06068B0F5803F0BD0F3
:100A400010B1B0F5A02F11D0286820F480302860B4
:100A5000286820F4802002E0286840F48030286074
:100A6000606890B1FFF77CFC06460AE0286840F415
:100A700080202860F0E700BFFFF772FC801B64282D
:100A800073D828688003F7D50CE0FFF769FC0646A9
:100A900005E000BFFFF764FC801B6428F0D82868DD
:100AA0008003F7D420789A4E80074FF001094FF069
:100AB000000839D5686810F00C0F07D06868C0F3DB
:100AC0008100022809D16868C00306D4286880071D
:100AD00014D52069012808D110E02069B0B1C6F80A
:100AE0000090FFF73DFC074605E00AE1FFF738FC00
:100AF000C01B0228C4D828688007F7D52868616918
:100B000020F0F80040EAC10028600DE0C6F800803F
:100B1000FFF726FC074604E0FFF722FCC01B022873
:100B200023D828688007F7D4207800072CD5794887
:100B3000A169D9B1C0F80090FFF712FC074604E0A4
:100B4000FFF70EFCC01B02280FD8686A8007F7D594
:100B500071484FF4FA510068B0FBF1F0009000BF0B
:100B60000098411E0091FAD20EE080E0C0F80080AB
:100B7000FFF7F6FB074604E0FFF7F2FBC01B022875
:100B800075D8686A8007F7D42078400760D5E8698F
:100B90000027C00008D4E86940F08050E861E869A7
:100BA000012700F0805000905C480168C90513D40B
:100BB0000168834641F480710160FFF7D1FB8246F2
:100BC00006E000BFFFF7CCFBA0EB0A0064284ED87C
:100BD000DBF80000C005F5D5E06801280AD008B1AF
:100BE000052813D0286A20F001002862286A20F026
:100BF000040002E0286A40F001002862E06841F247
:100C0000883B98B1FFF7ACFB82460BE0286A40F0C6
:100C100004002862EEE700BFFFF7A2FBA0EB0A0189
:100C200059455AD8286A8007F6D50CE0FFF798FB9B
:100C3000824605E0FFF794FBA0EB0A0159454CD82A
:100C4000286A8007F6D41FB1E86920F08050E86177
:100C5000E06988B36968C1F38101022944D00228A0
:100C6000C6F8608004D0FFF77BFB044638E034E030
:100C7000FFF776FB074604E0FFF772FBC01B022874
:100C80002BD828688001F7D4206AB0F5803F05D1C1
:100C90006868A16820F4003008436860D4E908015E
:100CA0000843696821F4741108436860C6F86090CD
:100CB000FFF756FB044606E025E000BFFFF750FBB8
:100CC000001B022809D828688001F7D51BE000BF67
:100CD000FFF746FB001B022802D90320BDE8F88F6E
:100CE00028688001F4D40EE00128F7D06868226AF1
:100CF00000F48031914204D1616A00F4701088429E
:100D000001D00120EAE70020E8E7000000100240DF
:100D1000000042428004424238000020007000403F
:100D200070B5040003D0607C002610B105E00120FE
:100D300070BD2674204600F043F8022060742046FF
:100D400000F010F9042578BB204600F0A1FC58BB48
:100D50002068416821F007014160A06820B1174870
:100D6000016821F0010101601448001F0168A268B8
:100D700021F46071114301606068411C04D10120BD
:100D8000FFF778FC80B1401E21688A6822F00F02CC
:100D900042EA10428A602168CA6860F30F02CA60A2
:100DA000204600F08FFC08B16574C0E7E6730120AF
:100DB0006073A0736074002070BD0000306C004050
:100DC00008B50068084988420DD1FFF74DFC074877
:100DD000C16941F00061C161C069054900F000606E
:100DE00000900120086008BD00280040001002406B
:100DF0003C0442422DE9F0410D4604003BD0C5B30E
:100E0000207C01283AD04FF0010884F8108002209D
:100E10006074E87872B300F032FCE073687800F038
:100E20002EFC6073A87800F02AFCA073C2B2617B2C
:100E3000E07B00F079FC20732870204600F064FC11
:100E40004FF46161B0FBF1F1002518292DD918226A
:100E5000B1FBF2F1A1EB011101EB4101C1EB011179
:100E600000EBC1163146204600F09DFC0427C8B9AE
:100E70000BE000E004E00120BDE8F0810220FBE788
:100E8000E07368786073A878CFE7204600F035FCFF
:100E9000411C0AD0B04208D206490144204600F065
:100EA0006EFC10B167742574E5E784F81180257431
:100EB0000020E1E7805101002DE9F0410D460400DA
:100EC00024D01DB3207C012823D04FF0010884F8E2
:100ED0001080022060742878EAB100F0D0FB4FF453
:100EE000616100FB01F6687800F0C9FBC0EB0010FF
:100EF00006EB8006A87800F0C2FB3518294620468C
:100F000000F051FC0026042710BB0FE00120BDE8D3
:100F1000F0810220FBE74FF4616148436978C1EB3F
:100F2000011100EB8100A9784518E7E720684168C6
:100F300021F005014160204600F0DFFB411C0AD092
:100F4000A84208D206490144204600F018FC10B11E
:100F500067742674DAE784F8118026740020D6E7D7
:100F60008051010070B504000AD02068416821F06A
:100F700008014160FFF7F4F905464FF47A7608E07E
:100F8000012070BDFFF7ECF9401BB04201D90320EE
:100F900070BD206840680007F4D5002070BD10B512
:100FA000401EB0F1807F01D3012010BD4FF0E0243E
:100FB00060610F21601700F04FFD0020A061072045
:100FC0002061002010BD000070B590F83C20012A7F
:100FD00023D0012480F83C40022280F83D200368A1
:100FE0005A689D6822F070060A6832435A600C4BBA
:100FF00002689A4205D0B2F1804F02D0094B9A4262
:1010000004D1496825F080031943916080F83D4080
:10101000002180F83C10084670BD022070BD000021
:10102000002C01400004004010B5040003D094F8E7
:101030003D0010B107E0012010BD002084F83C0005
:10104000204600F01FF8022084F83D00211D206892
:1010500000F0EEFB012084F8460084F83E0084F89E
:101060003F0084F8400084F8410084F8420084F88E
:10107000430084F8440084F8450084F83D000020D3
:1010800010BD000000B585B00021009101910291D2
:101090000391144A01681448914217D1816941F4BF
:1010A00000618161816901F400610491816941F00D
:1010B000040181618069694600F004000490901485
:1010C00000900A48FFF766F805B000BDB1F1804F07
:1010D000FAD1C16941F00101C161C06900F00100AC
:1010E0000490F1E7002C014000100240000801408C
:1010F00070B5044690F83C00012817D0012584F80B
:101100003C50022084F83D002068826822F077027B
:1011100022F47F4282600868502830D00DDC2028FD
:101120004DD005DC98B310283BD148E0022070BDBB
:10113000302844D0402834D139E0602828D07028A5
:1011400006D0B0F5805F2CD0B0F5005F29D10AE061
:10115000CB68D1E90121206800F0A5FB20688168F7
:1011600041F0770109E0CB68D1E90121206800F066
:101170009AFB2068816841F48041816011E0CA686F
:101180004968206800F044FC5021206807E016E020
:10119000CA684968206800F04CFC6021206800F0B3
:1011A0008CFB84F83D50002084F83C0070BDCA6878
:1011B0004968206800F02CFC40212068EFE7226895
:1011C00001461046EBE7000000B585B00021009114
:1011D0000191029103910068B0F1804F1BD10F483B
:1011E000816941F0040181618069694600F0040071
:1011F00004904FF4004000900220019003900848B2
:10120000FEF7C8FF0748416821F4407141F0E061F2
:1012100041F48071416005B000BD00000010024043
:10122000000801400000014070B5044690F83C0001
:101230000D4601280AD0012084F83C0042B1042A5E
:1012400018D0082A2AD00C2A4DD139E0022070BDCE
:10125000206800F03BFB2068816941F00801816152
:101260002068816921F004018161206881692A690F
:10127000114311E0206800F051FB2068816941F4BE
:10128000006181612068816921F480618161206849
:1012900081692A6941EA0221816124E0206800F025
:1012A00069FB2068C16941F00801C1612068C1691A
:1012B00021F00401C1612068C1692A69114311E06C
:1012C000206800F083FB2068C16941F40061C161BE
:1012D0002068C16921F48061C1612068C1692A69FF
:1012E00041EA0221C161002084F83C0070BD10B5C4
:1012F000040003D094F83D0010B107E0012010BDB8
:10130000002084F83C00204600F01EF8022084F8FB
:101310003D00211D206800F08BFA012084F8460072
:1013200084F83E0084F83F0084F8400084F84100CF
:1013300084F8420084F8430084F8440084F84500AF
:1013400084F83D00002010BD7047000010B5044631
:10135000022249B104290ED0082913D094F8410083
:10136000012816D0012010BD94F83E000128F9D1C3
:1013700084F83E200FE094F83F000128F2D184F871
:101380003F2008E094F840000128EBD184F8402089
:1013900001E084F841200122206800F077FA0E492C
:1013A0002068884203D1426C42F4004242642068C3
:1013B000884205D0B0F1804F02D00849884204D15C
:1013C000816801F00701062903D0016841F001019D
:1013D0000160002010BD0000002C0140000400400E
:1013E00030B504460D460068002200F04FFA174B56
:1013F00041F2111120688A10984209D1036A0B4208
:1014000006D1036A134203D1436C23F400434364BF
:101410002068036A0B4206D1016A114203D10168B8
:1014200021F00101016001203DB1042D08D0082DFB
:1014300009D084F84100002030BD84F83E00FAE76E
:1014400084F83F00F7E784F84000F4E7002C0140FF
:10145000FEE700002DE9F04F85B0002432480094EB
:10146000019402940394816941F0100181618169C2
:1014700001F010010491816941F0200181618169CD
:1014800001F020010491816941F0040181618169C9
:1014900001F004010491816941F0080181618069D2
:1014A000DFF8889000F008004FF400550490002207
:1014B00029464846FEF74EFFDFF874A042F6D37780
:1014C000002239465046FEF745FFDFF868B04FF678
:1014D0003078002241465846FEF73CFF0095022630
:1014E00001250396CDE9015469464846FEF752FEB0
:1014F00000970396CDE9015469465046FEF74AFE2F
:101500000F208DE8310069465846FEF743FECDF8BE
:1015100000800396CDE9015469465846FEF73AFE2D
:1015200005B0BDE8F08F000000100240001001403F
:1015300000080140000C01401CB50024154801942E
:10154000134900940160611E41604FF48071816015
:10155000FFF7E6FB06208DF8040012208DF8050049
:1015600030208DF80600012201A90A48FFF7A4FCEB
:1015700001208DF800008DF801008DF80200024670
:101580008DF8034069460348FFF734FC1CBD00009A
:1015900000280040CC00002010B586B0002413487D
:1015A000009401940294039404940F490594C0E9B3
:1015B00000141421C0E90241046144618461FFF711
:1015C00033FD4FF40050CDE900040294694607480A
:1015D0000394FFF78DFD049404A904480594FFF7D4
:1015E000F3FC06B010BD0000002C01403C000020C0
:1015F00010B58EB000240794089409940A940B94B3
:101600001C2168460C94FEF794FD1A484FF0804167
:1016100001600721C0E901144FF47A71C0E9031495
:101620008461FFF701FD4FF48050079007A911482E
:10163000FFF75EFD0F48FFF75AFE0B940BA90D480C
:101640000C94FFF7C1FC6020009040F2F310CDE94C
:1016500001040C22694607480494FFF7E5FD0822BF
:1016600069460448FFF7E0FD0248FFF7ADFD0EB004
:1016700010BD000084000020FEE77047704701099C
:1016800001EB810100F00F0000EB4100C0B2704798
:1016900070B50446FEF764FE05464FF47A7606E020
:1016A000FEF75EFE401BB04201D9032070BD2068EA
:1016B00040688006F4D52068416841F0100141601F
:1016C000002070BD70B504460068416821F010012B
:1016D0004160FEF745FE05464FF47A7607E000BF0D
:1016E000FEF73EFE401BB04201D9032070BD2068CA
:1016F00040688006F4D5002070BD0168086A496A18
:1017000089B241EA00407047006881698AB2C169C4
:101710008BB2816989B28A4203D0C06961F31F40EC
:10172000704743EA02407047F0B56424C1EBC1033F
:101730000927A500072603EB01130329B3FBF7F1E3
:1017400000F5FA60114401440AD2401EB0FBF4F2E5
:1017500001EB9001B0FBF5F0891A0844001D08E088
:10176000B0FBF4F201EB9001B0FBF5F0891A0844EC
:10177000801CB0FBF6F106FB1100C0B2F0BD70B5E5
:101780000D4606460024FFF783FF48B93168280C50
:1017900008623168A8B248623046FFF793FF00B193
:1017A0000124204670BD70B50D4606460024FFF7A3
:1017B0006FFF48B93168280C88613168A8B2C861E8
:1017C0003046FFF77FFF00B10124204670BD70470F
:1017D000FEF7C0BE30B593B028216846FEF7A9FCDD
:1017E00014210AA8FEF7A5FC00240F940520009000
:1017F00010944FF4803011941294012501900395B8
:1018000007946846FFF7FCF80F20CDE90A05A80207
:10181000CDE90C4000210AA80E94FFF705F8280234
:10182000CDE90F500FA8FEF789FF13B030BD704708
:1018300070B50268134B144C4FF08046984203D0A9
:10184000B04201D0A04203D122F070054A682A4379
:10185000984203D0B04201D0A04203D122F4407498
:10186000CA6822434C6922F08002224302608A68DF
:10187000C2620A688262984201D10969016301214A
:10188000416170BD002C01400004004010B501F022
:101890001F030121046A99408C430462016A9A4043
:1018A0001143016210BD10B5846842EA032224F49A
:1018B0007F440A432243826010BD826822F0700296
:1018C0000A4342F0070181607047000030B5026AA8
:1018D00022F001020262026A4368846924F07305FF
:1018E0000C682C4322F002058A682A430A4DA8425C
:1018F0000BD122F00805CA6823F440732A434D69CE
:1019000022F004021D438B692B43436084614968C4
:101910004163026230BD0000002C014030B5026A14
:1019200022F010020262026A436884690D6824F49E
:10193000E64444EA05248D6822F0200242EA0512BA
:101940000B4DA8420ED1CD6822F0800242EA05126A
:101950004D6923F4406343EA85038D6922F0400218
:1019600043EA85034360846149688163026230BD54
:10197000002C014030B5026A22F480720262036AD0
:101980004268C46923F4007324F073050C682C4387
:101990008D6843EA05230C4DA8420ED1CD6823F48F
:1019A000006343EA05234D6922F4405242EA0512DE
:1019B0008D6923F4806342EA05124260C46149687C
:1019C000C163036230BD0000002C014030B5026AE3
:1019D00022F480520262046A4268C3690D6823F4EB
:1019E000E64343EA05238D6824F4005444EA0534B1
:1019F000064DA84204D14D6922F4804242EA851284
:101A00004260C36149680164046230BD002C01403A
:101A100010B5036A046A24F001040462846924F0A6
:101A2000F00444EA021423F00A020A4384610262C9
:101A300010BD10B5036A23F0100303628369046AC2
:101A400023F4704343EA023224F0A00343EA011175
:101A50008261016210BDFEE70907090E002804DB60
:101A600000F1E02080F80014704700F00F0000F152
:101A7000E02080F8141D704702E008C8121F08C15A
:101A8000002AFAD170477047002001E001C1121FFF
:101A9000002AFBD17047C0000A21B0FBF1F1002001
:101AA00000E0401C8842FCD3704700002DE9F04163
:101AB0000D46064617461146284600F083F80B49A6
:101AC000002406EB460001EB40066D1C05E0032CEC
:101AD00003D1E8B2394600F075F8305D00F030F817
:101AE000641CE4B2062CF2D3BDE8F0810C1F0008A0
:101AF00070B505460E46002000F064F80F4905EB6E
:101B00004500002401EB800510E0032C04D0062CD6
:101B100005D0092C0AD105E03146012004E0314608
:101B2000022001E03146032000F04CF8285D00F06F
:101B300007F8641CE4B20C2CE7D370BD881F0008C2
:101B400070B50E4C0646012291022046FEF702FCBB
:101B50000122150229462046FEF7FCFB304600F024
:101B600077F91420FFF797FF002229462046FEF759
:101B7000F1FBBDE870401420FFF78DBF0008014065
:101B800070B50F4C064600224FF480612046FEF7E8
:101B9000E1FB0122150229462046FEF7DBFB304619
:101BA00000F056F9C820FFF776FF002229462046AC
:101BB000FEF7D0FBBDE87040C820FFF76CBF000007
:101BC0000008014008B505A2126800921DF8000047
:101BD0000844C0B2FFF7D4FF08BD000080C094D411
:101BE00070B5184C00224FF480712046FEF7B2FB0E
:101BF000002261152046FEF7ADFB0022211520468C
:101C0000FEF7A8FB3820FFF7BBFF0120FEF7B0FA74
:101C10000C20FFF7B5FF0120FFF7B2FF0220FEF70F
:101C2000A7FA0620FFF7ACFF4020FFF7A9FF064DFB
:101C30000024285DFFF784FF641CE4B2402CF8D335
:101C400070BD000000080140481F000810B50446A0
:101C500003E000BFFFF774FF641C20780028F9D16F
:101C600010BD000010B50C460B49085C00F02AF9C5
:101C7000200A00F027F9E0B200F024F9074C012215
:101C800010212046FEF766FB20460022BDE81040EA
:101C90001021FEF75FBB0000120000200008014089
:101CA00070B50B4D00244FF6FF7600BF35F81410C9
:101CB0002046FFF7D7FF0120FEF75AFA31460820E9
:101CC000FFF7D0FF641CE4B2082CEFD370BD000016
:101CD0001C00002070B50D4CE07800F0F3F8A078FF
:101CE00000F0F0F8607800F0EDF8207800F0EAF805
:101CF0000122074D540321462846FEF72BFB2146BF
:101D00002846BDE870400022FEF724BB02000020F8
:101D10000010014010B50C460949085C00F0D2F8EB
:101D2000204600F0CFF8074C012202212046FEF7A2
:101D300011FB20460022BDE810400221FEF70ABB3D
:101D4000120000200008014070B5094D0024204613
:101D5000295DFFF7DFFF0520FEF70AFAFF210820C3
:101D6000FFF7D8FF641CE4B2082CF0D370BD00006C
:101D70000A000020FEF7F6FBFFF72CFDFFF76AFBD9
:101D8000FFF70AFCFFF734FC2A48294900240160C8
:101D90002949C0E901144FF48041C0E9034144617D
:101DA0008461C4610462FEF7E1FAFFF7C5FBFFF747
:101DB00091FFFFF7C9FFFFF773FF1E480C215C3846
:101DC000FFF70EFB1B4808215C38FFF7BFFA1B49E1
:101DD00041F6FF50C022488188801948C721017010
:101DE00042708170FF21C170FFF774FF15480470C5
:101DF000FFF7F6FE0F4964205C390968C8630021CB
:101E00000846FFF7DFFE3020FFF79AFE022200218E
:101E10000120FFF74BFE0A210220FFF769FE002197
:101E20000320FFF7CFFE08A0FFF710FFE7E7000051
:101E300000540040E0000020A08601001C000020AB
:101E4000020000200000002048454C4C4F000000DC
:101E500070B51B4D044600F080024FF40041284647
:101E6000FEF778FA04F040024FF480412846FEF76E
:101E700071FA04F0200269142846FEF76BFA04F0A8
:101E80001002A9142846FEF765FA04F00802E914C6
:101E90002846FEF75FFA04F0040229152846FEF7EB
:101EA00059FA04F0020269152846FEF753FA04F0C5
:101EB0000102A9152846BDE87040FEF74BBA0000A4
:101EC000000C01402DE9F0470F4D002407464FF06C
:101ED00080084FF400696E1428FA04F23A4049462B
:101EE0002846FEF737FA012231462846FEF732FA35
:101EF000002231462846FEF72DFA641CE4B2082C75
:101F0000EAD3BDE8F08700000008014000010204A8
:101F10000305010220030703060602040303060665
:101F2000020303050703072020070706060303052E
:101F3000000606040305010107202007000602042D
:101F40000305000602030305070F1F1F1F1F1F1FA6
:101F50001F1F1F00000000001C1E1F1F1F1F1F1F30
:101F600000000000001F1F1F1F1F1F1F1F1F0F0744
:101F70001F1F1F1F1F1F1E1C1F1F1F0000001F1FD2
:101F80001F1F1F1F1F1F1F1F000102072007072001
:101F90000705030401022020072020072003070370
:101FA00001010203030707202005030300010220AB
:101FB000030420200205030407200705030720204F
:101FC000072020070701010703032020070503045A
:101FD000000102070303072007050304010107208E
:101FE0002004200020200720000102050304002017
:101FF000020503040001020503072020070503046E
:102000002020202020202020202020200000000050
:102010000000000001020304060708090000000098
:102020000102030444200008000000203C000000DE
:10203000781A0008802000083C000020FC04000002
:10204000881A00080000FFFFFFFF00000000FFFFEC
:10205000FFFFFFFFFFFF7FBFDFEFF7FBFDFEFF008E
:10206000FFFFFFFFFFFFFFFFFFFFFFFFFFFFFFFF80
:102070000100000010000000000000000024F40037
:04000005080000ED02
:00000001FF
